{
  "address": "0x24D11988d717C0B24afD36eaC4939cB0b2b980E7",
  "abi": [
    {
      "inputs": [
        {
          "internalType": "address",
          "name": "_ccipRouter",
          "type": "address"
        },
        {
          "internalType": "address",
          "name": "_linkToken",
          "type": "address"
        },
        {
          "internalType": "address",
          "name": "initialOwner",
          "type": "address"
        }
      ],
      "stateMutability": "nonpayable",
      "type": "constructor"
    },
    {
      "inputs": [],
      "name": "AmountAboveMaximum",
      "type": "error"
    },
    {
      "inputs": [],
      "name": "AmountBelowMinimum",
      "type": "error"
    },
    {
      "inputs": [],
      "name": "ChainNotSupported",
      "type": "error"
    },
    {
      "inputs": [],
      "name": "DirectTransferFailed",
      "type": "error"
    },
    {
      "inputs": [],
      "name": "EnforcedPause",
      "type": "error"
    },
    {
      "inputs": [],
      "name": "ExpectedPause",
      "type": "error"
    },
    {
      "inputs": [],
      "name": "FeeTooHigh",
      "type": "error"
    },
    {
      "inputs": [],
      "name": "InsufficientCCIPFee",
      "type": "error"
    },
    {
      "inputs": [],
      "name": "InsufficientContractBalance",
      "type": "error"
    },
    {
      "inputs": [],
      "name": "InvalidAmount",
      "type": "error"
    },
    {
      "inputs": [],
      "name": "InvalidPriceData",
      "type": "error"
    },
    {
      "inputs": [],
      "name": "InvalidRecipient",
      "type": "error"
    },
    {
      "inputs": [],
      "name": "MessageAlreadyProcessed",
      "type": "error"
    },
    {
      "inputs": [],
      "name": "OnlyCreatorCanDelete",
      "type": "error"
    },
    {
      "inputs": [
        {
          "internalType": "address",
          "name": "owner",
          "type": "address"
        }
      ],
      "name": "OwnableInvalidOwner",
      "type": "error"
    },
    {
      "inputs": [
        {
          "internalType": "address",
          "name": "account",
          "type": "address"
        }
      ],
      "name": "OwnableUnauthorizedAccount",
      "type": "error"
    },
    {
      "inputs": [],
      "name": "ReentrancyGuardReentrantCall",
      "type": "error"
    },
    {
      "inputs": [],
      "name": "RemittanceAlreadyCompleted",
      "type": "error"
    },
    {
      "inputs": [],
      "name": "RemittanceAlreadyDeleted",
      "type": "error"
    },
    {
      "inputs": [],
      "name": "RemittanceNotFound",
      "type": "error"
    },
    {
      "inputs": [
        {
          "internalType": "address",
          "name": "token",
          "type": "address"
        }
      ],
      "name": "SafeERC20FailedOperation",
      "type": "error"
    },
    {
      "inputs": [],
      "name": "SlippageTooHigh",
      "type": "error"
    },
    {
      "inputs": [],
      "name": "TokenNotSupported",
      "type": "error"
    },
    {
      "inputs": [],
      "name": "TransferFailed",
      "type": "error"
    },
    {
      "anonymous": false,
      "inputs": [
        {
          "indexed": true,
          "internalType": "bytes32",
          "name": "remittanceId",
          "type": "bytes32"
        },
        {
          "indexed": true,
          "internalType": "bytes32",
          "name": "messageId",
          "type": "bytes32"
        },
        {
          "indexed": true,
          "internalType": "address",
          "name": "recipient",
          "type": "address"
        },
        {
          "indexed": false,
          "internalType": "uint256",
          "name": "amount",
          "type": "uint256"
        },
        {
          "indexed": false,
          "internalType": "address",
          "name": "targetToken",
          "type": "address"
        }
      ],
      "name": "CrossChainRemittanceReceived",
      "type": "event"
    },
    {
      "anonymous": false,
      "inputs": [
        {
          "indexed": true,
          "internalType": "bytes32",
          "name": "remittanceId",
          "type": "bytes32"
        },
        {
          "indexed": true,
          "internalType": "bytes32",
          "name": "messageId",
          "type": "bytes32"
        },
        {
          "indexed": true,
          "internalType": "uint64",
          "name": "destinationChain",
          "type": "uint64"
        },
        {
          "indexed": false,
          "internalType": "address",
          "name": "recipient",
          "type": "address"
        },
        {
          "indexed": false,
          "internalType": "uint256",
          "name": "amount",
          "type": "uint256"
        },
        {
          "indexed": false,
          "internalType": "address",
          "name": "targetToken",
          "type": "address"
        }
      ],
      "name": "CrossChainRemittanceSent",
      "type": "event"
    },
    {
      "anonymous": false,
      "inputs": [
        {
          "indexed": false,
          "internalType": "uint256",
          "name": "oldFee",
          "type": "uint256"
        },
        {
          "indexed": false,
          "internalType": "uint256",
          "name": "newFee",
          "type": "uint256"
        }
      ],
      "name": "FeeUpdated",
      "type": "event"
    },
    {
      "anonymous": false,
      "inputs": [
        {
          "indexed": true,
          "internalType": "address",
          "name": "previousOwner",
          "type": "address"
        },
        {
          "indexed": true,
          "internalType": "address",
          "name": "newOwner",
          "type": "address"
        }
      ],
      "name": "OwnershipTransferred",
      "type": "event"
    },
    {
      "anonymous": false,
      "inputs": [
        {
          "indexed": false,
          "internalType": "address",
          "name": "account",
          "type": "address"
        }
      ],
      "name": "Paused",
      "type": "event"
    },
    {
      "anonymous": false,
      "inputs": [
        {
          "indexed": true,
          "internalType": "bytes32",
          "name": "remittanceId",
          "type": "bytes32"
        },
        {
          "indexed": true,
          "internalType": "address",
          "name": "recipient",
          "type": "address"
        },
        {
          "indexed": false,
          "internalType": "uint256",
          "name": "amount",
          "type": "uint256"
        },
        {
          "indexed": false,
          "internalType": "address",
          "name": "targetToken",
          "type": "address"
        },
        {
          "indexed": false,
          "internalType": "bool",
          "name": "isCrossChain",
          "type": "bool"
        }
      ],
      "name": "RemittanceCompleted",
      "type": "event"
    },
    {
      "anonymous": false,
      "inputs": [
        {
          "indexed": true,
          "internalType": "bytes32",
          "name": "remittanceId",
          "type": "bytes32"
        },
        {
          "indexed": true,
          "internalType": "address",
          "name": "sender",
          "type": "address"
        },
        {
          "indexed": true,
          "internalType": "address",
          "name": "recipient",
          "type": "address"
        },
        {
          "indexed": false,
          "internalType": "uint256",
          "name": "amount",
          "type": "uint256"
        },
        {
          "indexed": false,
          "internalType": "address",
          "name": "sourceToken",
          "type": "address"
        },
        {
          "indexed": false,
          "internalType": "address",
          "name": "targetToken",
          "type": "address"
        },
        {
          "indexed": false,
          "internalType": "uint64",
          "name": "destinationChain",
          "type": "uint64"
        }
      ],
      "name": "RemittanceCreated",
      "type": "event"
    },
    {
      "anonymous": false,
      "inputs": [
        {
          "indexed": true,
          "internalType": "bytes32",
          "name": "remittanceId",
          "type": "bytes32"
        },
        {
          "indexed": true,
          "internalType": "address",
          "name": "sender",
          "type": "address"
        },
        {
          "indexed": false,
          "internalType": "uint256",
          "name": "refundedAmount",
          "type": "uint256"
        },
        {
          "indexed": false,
          "internalType": "address",
          "name": "sourceToken",
          "type": "address"
        },
        {
          "indexed": false,
          "internalType": "uint256",
          "name": "refundedETH",
          "type": "uint256"
        }
      ],
      "name": "RemittanceDeleted",
      "type": "event"
    },
    {
      "anonymous": false,
      "inputs": [
        {
          "indexed": true,
          "internalType": "address",
          "name": "user",
          "type": "address"
        },
        {
          "indexed": true,
          "internalType": "address",
          "name": "tokenIn",
          "type": "address"
        },
        {
          "indexed": true,
          "internalType": "address",
          "name": "tokenOut",
          "type": "address"
        },
        {
          "indexed": false,
          "internalType": "uint256",
          "name": "amountIn",
          "type": "uint256"
        },
        {
          "indexed": false,
          "internalType": "uint256",
          "name": "amountOut",
          "type": "uint256"
        }
      ],
      "name": "TokenSwapped",
      "type": "event"
    },
    {
      "anonymous": false,
      "inputs": [
        {
          "indexed": false,
          "internalType": "address",
          "name": "account",
          "type": "address"
        }
      ],
      "name": "Unpaused",
      "type": "event"
    },
    {
      "stateMutability": "payable",
      "type": "fallback"
    },
    {
      "inputs": [],
      "name": "BASIS_POINTS",
      "outputs": [
        {
          "internalType": "uint256",
          "name": "",
          "type": "uint256"
        }
      ],
      "stateMutability": "view",
      "type": "function"
    },
    {
      "inputs": [],
      "name": "MAX_FEE",
      "outputs": [
        {
          "internalType": "uint256",
          "name": "",
          "type": "uint256"
        }
      ],
      "stateMutability": "view",
      "type": "function"
    },
    {
      "inputs": [
        {
          "internalType": "uint64",
          "name": "chainSelector",
          "type": "uint64"
        }
      ],
      "name": "addSupportedChain",
      "outputs": [],
      "stateMutability": "nonpayable",
      "type": "function"
    },
    {
      "inputs": [
        {
          "internalType": "address",
          "name": "token",
          "type": "address"
        },
        {
          "internalType": "address",
          "name": "priceFeed",
          "type": "address"
        },
        {
          "internalType": "uint256",
          "name": "minAmount",
          "type": "uint256"
        },
        {
          "internalType": "uint256",
          "name": "maxAmount",
          "type": "uint256"
        }
      ],
      "name": "addSupportedToken",
      "outputs": [],
      "stateMutability": "nonpayable",
      "type": "function"
    },
    {
      "inputs": [
        {
          "components": [
            {
              "internalType": "bytes32",
              "name": "messageId",
              "type": "bytes32"
            },
            {
              "internalType": "uint64",
              "name": "sourceChainSelector",
              "type": "uint64"
            },
            {
              "internalType": "bytes",
              "name": "sender",
              "type": "bytes"
            },
            {
              "internalType": "bytes",
              "name": "data",
              "type": "bytes"
            },
            {
              "components": [
                {
                  "internalType": "address",
                  "name": "token",
                  "type": "address"
                },
                {
                  "internalType": "uint256",
                  "name": "amount",
                  "type": "uint256"
                }
              ],
              "internalType": "struct MockCCIPRouter.EVMTokenAmount[]",
              "name": "tokenAmounts",
              "type": "tuple[]"
            }
          ],
          "internalType": "struct MockCCIPRouter.Any2EVMMessage",
          "name": "message",
          "type": "tuple"
        }
      ],
      "name": "ccipReceive",
      "outputs": [],
      "stateMutability": "nonpayable",
      "type": "function"
    },
    {
      "inputs": [],
      "name": "ccipRouter",
      "outputs": [
        {
          "internalType": "contract MockCCIPRouter",
          "name": "",
          "type": "address"
        }
      ],
      "stateMutability": "view",
      "type": "function"
    },
    {
      "inputs": [
        {
          "internalType": "address",
          "name": "recipient",
          "type": "address"
        },
        {
          "internalType": "uint256",
          "name": "amount",
          "type": "uint256"
        },
        {
          "internalType": "address",
          "name": "sourceToken",
          "type": "address"
        },
        {
          "internalType": "address",
          "name": "targetToken",
          "type": "address"
        },
        {
          "internalType": "uint64",
          "name": "destinationChain",
          "type": "uint64"
        }
      ],
      "name": "createRemittance",
      "outputs": [],
      "stateMutability": "payable",
      "type": "function"
    },
    {
      "inputs": [
        {
          "internalType": "bytes32",
          "name": "remittanceId",
          "type": "bytes32"
        }
      ],
      "name": "deleteRemittance",
      "outputs": [],
      "stateMutability": "nonpayable",
      "type": "function"
    },
    {
      "inputs": [
        {
          "internalType": "address",
          "name": "token",
          "type": "address"
        },
        {
          "internalType": "uint256",
          "name": "amount",
          "type": "uint256"
        }
      ],
      "name": "fundContract",
      "outputs": [],
      "stateMutability": "nonpayable",
      "type": "function"
    },
    {
      "inputs": [
        {
          "internalType": "address",
          "name": "token",
          "type": "address"
        }
      ],
      "name": "getContractTokenBalance",
      "outputs": [
        {
          "internalType": "uint256",
          "name": "",
          "type": "uint256"
        }
      ],
      "stateMutability": "view",
      "type": "function"
    },
    {
      "inputs": [
        {
          "internalType": "address",
          "name": "tokenA",
          "type": "address"
        },
        {
          "internalType": "address",
          "name": "tokenB",
          "type": "address"
        }
      ],
      "name": "getExchangeRate",
      "outputs": [
        {
          "internalType": "uint256",
          "name": "",
          "type": "uint256"
        }
      ],
      "stateMutability": "view",
      "type": "function"
    },
    {
      "inputs": [
        {
          "internalType": "uint64",
          "name": "destinationChainSelector",
          "type": "uint64"
        },
        {
          "internalType": "address",
          "name": "recipient",
          "type": "address"
        },
        {
          "internalType": "uint256",
          "name": "amount",
          "type": "uint256"
        }
      ],
      "name": "getFee",
      "outputs": [
        {
          "internalType": "uint256",
          "name": "",
          "type": "uint256"
        }
      ],
      "stateMutability": "view",
      "type": "function"
    },
    {
      "inputs": [
        {
          "internalType": "bytes32",
          "name": "remittanceId",
          "type": "bytes32"
        }
      ],
      "name": "getRemittance",
      "outputs": [
        {
          "components": [
            {
              "internalType": "address",
              "name": "sender",
              "type": "address"
            },
            {
              "internalType": "address",
              "name": "recipient",
              "type": "address"
            },
            {
              "internalType": "uint256",
              "name": "amount",
              "type": "uint256"
            },
            {
              "internalType": "address",
              "name": "sourceToken",
              "type": "address"
            },
            {
              "internalType": "address",
              "name": "targetToken",
              "type": "address"
            },
            {
              "internalType": "uint64",
              "name": "destinationChain",
              "type": "uint64"
            },
            {
              "internalType": "uint256",
              "name": "timestamp",
              "type": "uint256"
            },
            {
              "internalType": "bool",
              "name": "completed",
              "type": "bool"
            },
            {
              "internalType": "bool",
              "name": "deleted",
              "type": "bool"
            },
            {
              "internalType": "uint256",
              "name": "exchangeRate",
              "type": "uint256"
            },
            {
              "internalType": "uint256",
              "name": "ccipFee",
              "type": "uint256"
            },
            {
              "internalType": "bool",
              "name": "isCrossChain",
              "type": "bool"
            },
            {
              "internalType": "bytes32",
              "name": "ccipMessageId",
              "type": "bytes32"
            }
          ],
          "internalType": "struct RemitXCore.Remittance",
          "name": "",
          "type": "tuple"
        }
      ],
      "stateMutability": "view",
      "type": "function"
    },
    {
      "inputs": [],
      "name": "getRemittanceCount",
      "outputs": [
        {
          "internalType": "uint256",
          "name": "",
          "type": "uint256"
        }
      ],
      "stateMutability": "view",
      "type": "function"
    },
    {
      "inputs": [
        {
          "internalType": "address",
          "name": "user",
          "type": "address"
        }
      ],
      "name": "getRemittancesByUser",
      "outputs": [
        {
          "internalType": "bytes32[]",
          "name": "",
          "type": "bytes32[]"
        }
      ],
      "stateMutability": "view",
      "type": "function"
    },
    {
      "inputs": [
        {
          "internalType": "address",
          "name": "user",
          "type": "address"
        }
      ],
      "name": "getUserActiveRemittances",
      "outputs": [
        {
          "internalType": "bytes32[]",
          "name": "",
          "type": "bytes32[]"
        }
      ],
      "stateMutability": "view",
      "type": "function"
    },
    {
      "inputs": [
        {
          "internalType": "address",
          "name": "user",
          "type": "address"
        }
      ],
      "name": "getUserReceivedRemittances",
      "outputs": [
        {
          "internalType": "bytes32[]",
          "name": "",
          "type": "bytes32[]"
        }
      ],
      "stateMutability": "view",
      "type": "function"
    },
    {
      "inputs": [
        {
          "internalType": "address",
          "name": "user",
          "type": "address"
        }
      ],
      "name": "getUserRemittances",
      "outputs": [
        {
          "internalType": "bytes32[]",
          "name": "",
          "type": "bytes32[]"
        }
      ],
      "stateMutability": "view",
      "type": "function"
    },
    {
      "inputs": [],
      "name": "linkToken",
      "outputs": [
        {
          "internalType": "address",
          "name": "",
          "type": "address"
        }
      ],
      "stateMutability": "view",
      "type": "function"
    },
    {
      "inputs": [],
      "name": "owner",
      "outputs": [
        {
          "internalType": "address",
          "name": "",
          "type": "address"
        }
      ],
      "stateMutability": "view",
      "type": "function"
    },
    {
      "inputs": [],
      "name": "pause",
      "outputs": [],
      "stateMutability": "nonpayable",
      "type": "function"
    },
    {
      "inputs": [],
      "name": "paused",
      "outputs": [
        {
          "internalType": "bool",
          "name": "",
          "type": "bool"
        }
      ],
      "stateMutability": "view",
      "type": "function"
    },
    {
      "inputs": [
        {
          "internalType": "bytes32",
          "name": "",
          "type": "bytes32"
        }
      ],
      "name": "processedMessages",
      "outputs": [
        {
          "internalType": "bool",
          "name": "",
          "type": "bool"
        }
      ],
      "stateMutability": "view",
      "type": "function"
    },
    {
      "inputs": [],
      "name": "remittanceFee",
      "outputs": [
        {
          "internalType": "uint256",
          "name": "",
          "type": "uint256"
        }
      ],
      "stateMutability": "view",
      "type": "function"
    },
    {
      "inputs": [
        {
          "internalType": "uint256",
          "name": "",
          "type": "uint256"
        }
      ],
      "name": "remittanceIds",
      "outputs": [
        {
          "internalType": "bytes32",
          "name": "",
          "type": "bytes32"
        }
      ],
      "stateMutability": "view",
      "type": "function"
    },
    {
      "inputs": [
        {
          "internalType": "bytes32",
          "name": "",
          "type": "bytes32"
        }
      ],
      "name": "remittances",
      "outputs": [
        {
          "internalType": "address",
          "name": "sender",
          "type": "address"
        },
        {
          "internalType": "address",
          "name": "recipient",
          "type": "address"
        },
        {
          "internalType": "uint256",
          "name": "amount",
          "type": "uint256"
        },
        {
          "internalType": "address",
          "name": "sourceToken",
          "type": "address"
        },
        {
          "internalType": "address",
          "name": "targetToken",
          "type": "address"
        },
        {
          "internalType": "uint64",
          "name": "destinationChain",
          "type": "uint64"
        },
        {
          "internalType": "uint256",
          "name": "timestamp",
          "type": "uint256"
        },
        {
          "internalType": "bool",
          "name": "completed",
          "type": "bool"
        },
        {
          "internalType": "bool",
          "name": "deleted",
          "type": "bool"
        },
        {
          "internalType": "uint256",
          "name": "exchangeRate",
          "type": "uint256"
        },
        {
          "internalType": "uint256",
          "name": "ccipFee",
          "type": "uint256"
        },
        {
          "internalType": "bool",
          "name": "isCrossChain",
          "type": "bool"
        },
        {
          "internalType": "bytes32",
          "name": "ccipMessageId",
          "type": "bytes32"
        }
      ],
      "stateMutability": "view",
      "type": "function"
    },
    {
      "inputs": [
        {
          "internalType": "uint64",
          "name": "chainSelector",
          "type": "uint64"
        }
      ],
      "name": "removeSupportedChain",
      "outputs": [],
      "stateMutability": "nonpayable",
      "type": "function"
    },
    {
      "inputs": [
        {
          "internalType": "address",
          "name": "token",
          "type": "address"
        }
      ],
      "name": "removeSupportedToken",
      "outputs": [],
      "stateMutability": "nonpayable",
      "type": "function"
    },
    {
      "inputs": [],
      "name": "renounceOwnership",
      "outputs": [],
      "stateMutability": "nonpayable",
      "type": "function"
    },
    {
      "inputs": [
        {
          "internalType": "uint256",
          "name": "newFee",
          "type": "uint256"
        }
      ],
      "name": "setRemittanceFee",
      "outputs": [],
      "stateMutability": "nonpayable",
      "type": "function"
    },
    {
      "inputs": [
        {
          "internalType": "uint64",
          "name": "",
          "type": "uint64"
        }
      ],
      "name": "supportedChains",
      "outputs": [
        {
          "internalType": "bool",
          "name": "",
          "type": "bool"
        }
      ],
      "stateMutability": "view",
      "type": "function"
    },
    {
      "inputs": [
        {
          "internalType": "address",
          "name": "",
          "type": "address"
        }
      ],
      "name": "supportedTokens",
      "outputs": [
        {
          "internalType": "bool",
          "name": "isSupported",
          "type": "bool"
        },
        {
          "internalType": "address",
          "name": "priceFeed",
          "type": "address"
        },
        {
          "internalType": "uint256",
          "name": "minAmount",
          "type": "uint256"
        },
        {
          "internalType": "uint256",
          "name": "maxAmount",
          "type": "uint256"
        }
      ],
      "stateMutability": "view",
      "type": "function"
    },
    {
      "inputs": [
        {
          "internalType": "address",
          "name": "tokenIn",
          "type": "address"
        },
        {
          "internalType": "address",
          "name": "tokenOut",
          "type": "address"
        },
        {
          "internalType": "uint256",
          "name": "amountIn",
          "type": "uint256"
        },
        {
          "internalType": "uint256",
          "name": "minAmountOut",
          "type": "uint256"
        }
      ],
      "name": "swapTokens",
      "outputs": [],
      "stateMutability": "nonpayable",
      "type": "function"
    },
    {
      "inputs": [
        {
          "internalType": "address",
          "name": "newOwner",
          "type": "address"
        }
      ],
      "name": "transferOwnership",
      "outputs": [],
      "stateMutability": "nonpayable",
      "type": "function"
    },
    {
      "inputs": [],
      "name": "unpause",
      "outputs": [],
      "stateMutability": "nonpayable",
      "type": "function"
    },
    {
      "inputs": [
        {
          "internalType": "address",
          "name": "",
          "type": "address"
        },
        {
          "internalType": "uint256",
          "name": "",
          "type": "uint256"
        }
      ],
      "name": "userRemittances",
      "outputs": [
        {
          "internalType": "bytes32",
          "name": "",
          "type": "bytes32"
        }
      ],
      "stateMutability": "view",
      "type": "function"
    },
    {
      "inputs": [
        {
          "internalType": "address payable",
          "name": "to",
          "type": "address"
        },
        {
          "internalType": "uint256",
          "name": "amount",
          "type": "uint256"
        }
      ],
      "name": "withdrawETHFees",
      "outputs": [],
      "stateMutability": "nonpayable",
      "type": "function"
    },
    {
      "inputs": [
        {
          "internalType": "address",
          "name": "token",
          "type": "address"
        },
        {
          "internalType": "address",
          "name": "to",
          "type": "address"
        },
        {
          "internalType": "uint256",
          "name": "amount",
          "type": "uint256"
        }
      ],
      "name": "withdrawFees",
      "outputs": [],
      "stateMutability": "nonpayable",
      "type": "function"
    },
    {
      "stateMutability": "payable",
      "type": "receive"
    }
  ],
  "transactionHash": "0x8c9ac5e7fb2d5f22709a65bca894cc6876ff0346cfe32081915f8a537b69c9ba",
  "args": [
    "0x1B5E93339955383d258aC5881F71AfF837A5933f",
    "0x9b14B28f6Ce775bD5a55d8858D51D8627747D0e2",
    "0xbc3683737f55f9C6E37cD74d04F345c586C5a3aE"
  ],
  "numDeployments": 2,
  "solcInputHash": "5a88b122744be0410a3fbcf117988cb8",
  "bytecode": "0x60a06040526032600a553480156200001657600080fd5b50604051620035bd380380620035bd833981016040819052620000399162000125565b82816001600160a01b0381166200006a57604051631e4fbdf760e01b81526000600482015260240160405180910390fd5b6200007581620000b8565b50600180556001600160a01b03908116608052600880549482166001600160a01b031995861617905560098054939091169290931691909117909155506200016f565b600080546001600160a01b038381166001600160a01b0319831681178455604051919092169283917f8be0079c531659141344cd1fd0a4f28419497f9722a3daafe3b4186f6b6457e09190a35050565b80516001600160a01b03811681146200012057600080fd5b919050565b6000806000606084860312156200013b57600080fd5b620001468462000108565b9250620001566020850162000108565b9150620001666040850162000108565b90509250925092565b6080516134326200018b6000396000611bd901526134326000f3fe6080604052600436106102115760003560e01c80637cf9636711610117578063baaa61be116100a5578063e55dc4e61161006c578063e55dc4e61461085e578063f2fde38b1461087e578063f9c3f3321461089e578063fb5c3312146108ce578063fd47ea0f146108ee57005b8063baaa61be146107dc578063bc063e1a146107fc578063cfe4184014610812578063dd6e973214610832578063e1f1c4a71461084857005b80638da5cb5b116100e95780638da5cb5b146106a35780638e18cdfc146106c157806399cf7c92146106e15780639c922d2a14610701578063a3c6aba2146107bc57005b80637cf963671461061e5780638456cb591461063e57806385572ffb1461065357806388ba16ab1461067357005b80634534c8031161019f578063615c8b6411610166578063615c8b64146103ef57806368c4ac26146105505780636d6f035d146105c9578063715018a6146105e957806376319190146105fe57005b80634534c8031461034b5780634a546f671461036b5780634d9fb4f61461038b57806357970e93146103ab5780635c975abb146103cb57005b806321002fb0116101e357806321002fb0146102b657806322b113e8146102d657806336d99230146102e95780633f4ba83a1461031657806342e02fb41461032b57005b80630398c9411461021a5780630de229841461023e57806314205e28146102765780631af6ee721461029657005b3661021857005b005b34801561022657600080fd5b50600b545b6040519081526020015b60405180910390f35b34801561024a57600080fd5b5060085461025e906001600160a01b031681565b6040516001600160a01b039091168152602001610235565b34801561028257600080fd5b5061022b610291366004612c06565b61090e565b3480156102a257600080fd5b506102186102b1366004612c23565b61097f565b3480156102c257600080fd5b506102186102d1366004612c23565b610b53565b6102186102e4366004612c58565b610bbf565b3480156102f557600080fd5b50610309610304366004612c06565b611283565b6040516102359190612cbc565b34801561032257600080fd5b506102186115aa565b34801561033757600080fd5b50610218610346366004612d00565b6115bc565b34801561035757600080fd5b5061022b610366366004612c23565b6115dd565b34801561037757600080fd5b50610309610386366004612c06565b6115fe565b34801561039757600080fd5b506102186103a6366004612d2c565b611934565b3480156103b757600080fd5b5060095461025e906001600160a01b031681565b3480156103d757600080fd5b5060025460ff165b6040519015158152602001610235565b3480156103fb57600080fd5b5061054361040a366004612c23565b604080516101a081018252600080825260208201819052918101829052606081018290526080810182905260a0810182905260c0810182905260e0810182905261010081018290526101208101829052610140810182905261016081018290526101808101919091525060009081526003602081815260409283902083516101a08101855281546001600160a01b0390811682526001830154811693820193909352600282015494810194909452918201548116606084015260048201549081166080840152600160a01b90046001600160401b031660a0830152600581015460c0830152600681015460ff808216151560e0850152610100918290048116151591840191909152600782015461012084015260088201546101408401526009820154161515610160830152600a015461018082015290565b6040516102359190612d47565b34801561055c57600080fd5b5061059f61056b366004612c06565b60046020526000908152604090208054600182015460029092015460ff8216926101009092046001600160a01b0316919084565b6040805194151585526001600160a01b039093166020850152918301526060820152608001610235565b3480156105d557600080fd5b506102186105e4366004612d00565b61195d565b3480156105f557600080fd5b506102186119a0565b34801561060a57600080fd5b50610218610619366004612c06565b6119b2565b34801561062a57600080fd5b5061022b610639366004612e3a565b6119ec565b34801561064a57600080fd5b50610218611bbe565b34801561065f57600080fd5b5061021861066e366004612e79565b611bce565b34801561067f57600080fd5b506103df61068e366004612c23565b60076020526000908152604090205460ff1681565b3480156106af57600080fd5b506000546001600160a01b031661025e565b3480156106cd57600080fd5b506102186106dc366004612eb3565b611d90565b3480156106ed57600080fd5b506103096106fc366004612c06565b611f97565b34801561070d57600080fd5b506107a361071c366004612c23565b600360208190526000918252604090912080546001820154600283015493830154600484015460058501546006860154600787015460088801546009890154600a909901546001600160a01b039889169a9789169997989687169796861696600160a01b9096046001600160401b03169560ff80861695610100900481169493929116908d565b6040516102359d9c9b9a99989796959493929190612ef9565b3480156107c857600080fd5b5061022b6107d7366004612d00565b612003565b3480156107e857600080fd5b5061022b6107f7366004612f86565b612034565b34801561080857600080fd5b5061022b6103e881565b34801561081e57600080fd5b5061030961082d366004612c06565b6122ac565b34801561083e57600080fd5b5061022b600a5481565b34801561085457600080fd5b5061022b61271081565b34801561086a57600080fd5b50610218610879366004612fbf565b6125ae565b34801561088a57600080fd5b50610218610899366004612c06565b6125ca565b3480156108aa57600080fd5b506103df6108b9366004612d2c565b60056020526000908152604090205460ff1681565b3480156108da57600080fd5b506102186108e9366004612d2c565b612605565b3480156108fa57600080fd5b50610218610909366004612eb3565b612631565b6040516370a0823160e01b81523060048201526000906001600160a01b038316906370a0823190602401602060405180830381865afa158015610955573d6000803e3d6000fd5b505050506040513d601f19601f820116820180604052508101906109799190612fdf565b92915050565b6109876126be565b61098f6126e8565b600081815260036020526040902080546001600160a01b03166109c557604051630638c3db60e41b815260040160405180910390fd5b80546001600160a01b031633146109ef5760405163b8d4540960e01b815260040160405180910390fd5b600681015460ff1615610a155760405163fe507afd60e01b815260040160405180910390fd5b6006810154610100900460ff1615610a4057604051630d29bf7160e41b815260040160405180910390fd5b60068101805461ff001916610100179055600a54600090610a639061271061300e565b600a548360020154610a759190613021565b610a7f9190613038565b90506000818360020154610a93919061305a565b6003840154909150610aaf906001600160a01b0316338361270c565b600883015460009015610af157506008830154604051339082156108fc029083906000818181858888f19350505050158015610aef573d6000803e3d6000fd5b505b6003840154604080518481526001600160a01b0390921660208301528101829052339086907f6b38b21c954a9f2a62cd6dd51fea9f5a9acb911637810617fed3cfee0a9d8f389060600160405180910390a350505050610b5060018055565b50565b610b5b61276b565b6103e8811115610b7e5760405163cd4e616760e01b815260040160405180910390fd5b600a5460408051918252602082018390527f528d9479e9f9889a87a3c30c7f7ba537e5e59c4c85a37733b16e57c62df61302910160405180910390a1600a55565b610bc76126be565b610bcf6126e8565b6001600160a01b038516610bf657604051634e46966960e11b815260040160405180910390fd5b83600003610c175760405163162908e360e11b815260040160405180910390fd5b6001600160a01b03831660009081526004602052604090205460ff16610c5057604051633dd1b30560e01b815260040160405180910390fd5b6001600160a01b03821660009081526004602052604090205460ff16610c8957604051633dd1b30560e01b815260040160405180910390fd5b6001600160401b03811660009081526005602052604090205460ff16610cc25760405163f21c9f0760e01b815260040160405180910390fd5b6001600160a01b038084166000908152600460209081526040918290208251608081018452815460ff8116151582526101009004909416918401919091526001810154918301829052600201546060830152851015610d3457604051632fcd1a0f60e01b815260040160405180910390fd5b8060600151851115610d595760405163ea5d71ed60e01b815260040160405180910390fd5b6000612710600a5487610d6c9190613021565b610d769190613038565b90506000610d84828861300e565b90506000610d928787612034565b90506000670de0b6b3a7640000610da98385613021565b610db39190613038565b6040516370a0823160e01b81523060048201529091506000906001600160a01b038916906370a0823190602401602060405180830381865afa158015610dfd573d6000803e3d6000fd5b505050506040513d601f19601f82011682018060405250810190610e219190612fdf565b905081811015610e445760405163786e0a9960e01b815260040160405180910390fd5b610e596001600160a01b038a1633308d612798565b600046886001600160401b031614158015610e7f5750876001600160401b0316610afa14155b90508015610eb9576000610e94898e866119ec565b905080341015610eb757604051635a53faeb60e11b815260040160405180910390fd5b505b6040516bffffffffffffffffffffffff1933606090811b821660208401528e811b82166034840152604883018e90528c811b821660688401528b901b16607c8201526001600160c01b031960c08a901b1660908201524260988201524360b882015260009060d801604051602081830303815290604052805190602001209050604051806101a00160405280336001600160a01b031681526020018e6001600160a01b031681526020018781526020018c6001600160a01b031681526020018b6001600160a01b031681526020018a6001600160401b0316815260200142815260200160011515815260200160001515815260200186815260200134815260200183151581526020016000801b8152506003600083815260200190815260200160002060008201518160000160006101000a8154816001600160a01b0302191690836001600160a01b0316021790555060208201518160010160006101000a8154816001600160a01b0302191690836001600160a01b031602179055506040820151816002015560608201518160030160006101000a8154816001600160a01b0302191690836001600160a01b0316021790555060808201518160040160006101000a8154816001600160a01b0302191690836001600160a01b0316021790555060a08201518160040160146101000a8154816001600160401b0302191690836001600160401b0316021790555060c0820151816005015560e08201518160060160006101000a81548160ff0219169083151502179055506101008201518160060160016101000a81548160ff021916908315150217905550610120820151816007015561014082015181600801556101608201518160090160006101000a81548160ff02191690831515021790555061018082015181600a0155905050600b81908060018154018082558091505060019003906000526020600020016000909190919091505560066000336001600160a01b03166001600160a01b031681526020019081526020016000208190806001815401808255809150506001900390600052602060002001600090919091909150558c6001600160a01b0316336001600160a01b0316827f01f80623c728c496756bfea4bee3081787fe87bbb66a22e65e2853c091998224898f8f8f60405161123f94939291909384526001600160a01b039283166020850152911660408301526001600160401b0316606082015260800190565b60405180910390a4811561125f5761125a818e868d8d6127d1565b61126b565b61126b818e868d612a14565b505050505050505061127c60018055565b5050505050565b6001600160a01b03811660009081526006602090815260408083208054825181850281018501909352808352606094938301828280156112e257602002820191906000526020600020905b8154815260200190600101908083116112ce575b505050505090506000805b82518110156114055760006003600085848151811061130e5761130e61306d565b602090810291909101810151825281810192909252604090810160002081516101a08101835281546001600160a01b039081168252600183015481169482019490945260028201549281019290925260038101548316606083015260048101549283166080830152600160a01b9092046001600160401b031660a0820152600582015460c0820152600682015460ff808216151560e08401526101009182900481161515918301829052600784015461012084015260088401546101408401526009840154161515610160830152600a9092015461018082015291506113fc57826113f881613083565b9350505b506001016112ed565b506000816001600160401b038111156114205761142061309c565b604051908082528060200260200182016040528015611449578160200160208202803683370190505b5090506000805b845181101561159f576000600360008784815181106114715761147161306d565b602090810291909101810151825281810192909252604090810160002081516101a08101835281546001600160a01b039081168252600183015481169482019490945260028201549281019290925260038101548316606083015260048101549283166080830152600160a01b9092046001600160401b031660a0820152600582015460c0820152600682015460ff808216151560e08401526101009182900481161515918301829052600784015461012084015260088401546101408401526009840154161515610160830152600a909201546101808201529150611596578582815181106115635761156361306d565b602002602001015184848151811061157d5761157d61306d565b60209081029190910101528261159281613083565b9350505b50600101611450565b509095945050505050565b6115b261276b565b6115ba612a7e565b565b6115c461276b565b6115d96001600160a01b038316333084612798565b5050565b600b81815481106115ed57600080fd5b600091825260209091200154905081565b60606000805b600b5481101561175457600060036000600b84815481106116275761162761306d565b60009182526020808320909101548352828101939093526040918201902081516101a08101835281546001600160a01b039081168083526001840154821695830195909552600283015493820193909352600382015483166060820152600482015480841660808301526001600160401b03600160a01b9091041660a0820152600582015460c0820152600682015460ff808216151560e0840152610100918290048116151591830191909152600783015461012083015260088301546101408301526009830154161515610160820152600a909101546101808201529250861614806117295750846001600160a01b031681602001516001600160a01b0316145b80156117385750806101000151155b1561174b578261174781613083565b9350505b50600101611604565b506000816001600160401b0381111561176f5761176f61309c565b604051908082528060200260200182016040528015611798578160200160208202803683370190505b5090506000805b600b5481101561192a57600060036000600b84815481106117c2576117c261306d565b60009182526020808320909101548352828101939093526040918201902081516101a08101835281546001600160a01b039081168083526001840154821695830195909552600283015493820193909352600382015483166060820152600482015480841660808301526001600160401b03600160a01b9091041660a0820152600582015460c0820152600682015460ff808216151560e0840152610100918290048116151591830191909152600783015461012083015260088301546101408301526009830154161515610160820152600a909101546101808201529250881614806118c45750866001600160a01b031681602001516001600160a01b0316145b80156118d35750806101000151155b1561192157600b82815481106118eb576118eb61306d565b90600052602060002001548484815181106119085761190861306d565b60209081029190910101528261191d81613083565b9350505b5060010161179f565b5090949350505050565b61193c61276b565b6001600160401b03166000908152600560205260409020805460ff19169055565b61196561276b565b6040516001600160a01b0383169082156108fc029083906000818181858888f1935050505015801561199b573d6000803e3d6000fd5b505050565b6119a861276b565b6115ba6000612ad0565b6119ba61276b565b6001600160a01b0316600090815260046020526040812080546001600160a81b03191681556001810182905560020155565b600046846001600160401b03161480611a0f5750836001600160401b0316610afa145b15611a1c57506000611bb7565b6001600160401b03841660009081526005602052604090205460ff16611a4457506000611bb7565b604080516001808252818301909252600091816020015b6040805180820190915260008082526020820152815260200190600190039081611a5b579050509050604051806040016040528060006001600160a01b031681526020018481525081600081518110611ab657611ab661306d565b60209081029190910101526040805160a081019091526001600160a01b03851660c08201526000908060e0810160405160208183030381529060405281526020018686604051602001611b0a9291906130b2565b60408051601f198184030181529181529082526020828101869052600083830181905282519182018352815260609092019190915260085490516320487ded60e01b81529192506001600160a01b0316906320487ded90611b719089908590600401613140565b602060405180830381865afa158015611b8e573d6000803e3d6000fd5b505050506040513d601f19601f82011682018060405250810190611bb29190612fdf565b925050505b9392505050565b611bc661276b565b6115ba612b20565b336001600160a01b037f00000000000000000000000000000000000000000000000000000000000000001614611c5e5760405162461bcd60e51b815260206004820152602a60248201527f4d6f636b4343495052656365697665723a2063616c6c6572206973206e6f74206044820152693a3432903937baba32b960b11b60648201526084015b60405180910390fd5b803560009081526007602052604090205460ff1615611c9057604051637b04260960e01b815260040160405180910390fd5b80356000908152600760205260408120805460ff1916600117905580808080611cbc606087018761321c565b810190611cc99190613269565b60408051808201909152600f81526e2224a922a1aa2faa2920a729a322a960891b602091820152855190860120949950929750909550935091507f6b727c208f0ffc5cff4183d92b70c7011f1fdb9bb6524b310999825144f0220d01611d8857611d3d6001600160a01b038216848461270c565b604080518381526001600160a01b03838116602083015285169188359187917f25ef1c4d6cc99266d3f60a9ec6daa3a1e96430c986addbe18ab277ae3398e165910160405180910390a45b505050505050565b611d986126be565b611da06126e8565b6001600160a01b03841660009081526004602052604090205460ff16611dd957604051633dd1b30560e01b815260040160405180910390fd5b6001600160a01b03831660009081526004602052604090205460ff16611e1257604051633dd1b30560e01b815260040160405180910390fd5b81600003611e335760405163162908e360e11b815260040160405180910390fd5b6000611e3f8585612034565b90506000670de0b6b3a7640000611e568386613021565b611e609190613038565b905082811015611e835760405163428637bb60e11b815260040160405180910390fd5b6040516370a0823160e01b81523060048201526000906001600160a01b038716906370a0823190602401602060405180830381865afa158015611eca573d6000803e3d6000fd5b505050506040513d601f19601f82011682018060405250810190611eee9190612fdf565b905081811015611f115760405163786e0a9960e01b815260040160405180910390fd5b611f266001600160a01b038816333088612798565b611f3a6001600160a01b038716338461270c565b60408051868152602081018490526001600160a01b0380891692908a169133917fd36cc53ba71bc76a3db3364981f5296dd4ca5eba0e8c89874f2170515bd20d24910160405180910390a4505050611f9160018055565b50505050565b6001600160a01b038116600090815260066020908152604091829020805483518184028101840190945280845260609392830182828015611ff757602002820191906000526020600020905b815481526020019060010190808311611fe3575b50505050509050919050565b6006602052816000526040600020818154811061201f57600080fd5b90600052602060002001600091509150505481565b6001600160a01b038083166000908152600460208181526040808420815160808082018452825460ff80821615158452610100918290048a16848801908152600180870154868901526002968701546060808801919091528d8d168c52998952878b2088519586018952805493841615158652939092048b16978401979097528101549482019490945292909101549382019390935290519293919290911661211f5760405162461bcd60e51b815260206004820152601e60248201527f50726963652066656564206e6f742073657420666f7220746f6b656e204100006044820152606401611c55565b60208101516001600160a01b03166121795760405162461bcd60e51b815260206004820152601e60248201527f50726963652066656564206e6f742073657420666f7220746f6b656e204200006044820152606401611c55565b600082602001516001600160a01b031663feaf968c6040518163ffffffff1660e01b815260040160a060405180830381865afa1580156121bd573d6000803e3d6000fd5b505050506040513d601f19601f820116820180604052508101906121e1919061335c565b505050915050600082602001516001600160a01b031663feaf968c6040518163ffffffff1660e01b815260040160a060405180830381865afa15801561222b573d6000803e3d6000fd5b505050506040513d601f19601f8201168201806040525081019061224f919061335c565b505050915050600082131580612266575060008113155b156122845760405163f45e167b60e01b815260040160405180910390fd5b8061229783670de0b6b3a7640000613021565b6122a19190613038565b979650505050505050565b60606000805b600b548110156123ed57600060036000600b84815481106122d5576122d561306d565b60009182526020808320909101548352828101939093526040918201902081516101a08101835281546001600160a01b03908116825260018301548116948201859052600283015493820193909352600382015483166060820152600482015480841660808301526001600160401b03600160a01b9091041660a0820152600582015460c0820152600682015460ff808216151560e0840152610100918290048116151591830191909152600783015461012083015260088301546101408301526009830154161515610160820152600a90910154610180820152925086161480156123c257508060e001515b80156123d15750806101000151155b156123e457826123e081613083565b9350505b506001016122b2565b506000816001600160401b038111156124085761240861309c565b604051908082528060200260200182016040528015612431578160200160208202803683370190505b5090506000805b600b5481101561192a57600060036000600b848154811061245b5761245b61306d565b60009182526020808320909101548352828101939093526040918201902081516101a08101835281546001600160a01b03908116825260018301548116948201859052600283015493820193909352600382015483166060820152600482015480841660808301526001600160401b03600160a01b9091041660a0820152600582015460c0820152600682015460ff808216151560e0840152610100918290048116151591830191909152600783015461012083015260088301546101408301526009830154161515610160820152600a909101546101808201529250881614801561254857508060e001515b80156125575750806101000151155b156125a557600b828154811061256f5761256f61306d565b906000526020600020015484848151811061258c5761258c61306d565b6020908102919091010152826125a181613083565b9350505b50600101612438565b6125b661276b565b61199b6001600160a01b038416838361270c565b6125d261276b565b6001600160a01b0381166125fc57604051631e4fbdf760e01b815260006004820152602401611c55565b610b5081612ad0565b61260d61276b565b6001600160401b03166000908152600560205260409020805460ff19166001179055565b61263961276b565b6040805160808101825260018082526001600160a01b0395861660208084019182528385019687526060840195865297871660009081526004909852929096209051815492516001600160a81b0319909316901515610100600160a81b0319161761010092909516919091029390931783559051928201929092559051600290910155565b6002600154036126e157604051633ee5aeb560e01b815260040160405180910390fd5b6002600155565b60025460ff16156115ba5760405163d93c066560e01b815260040160405180910390fd5b6040516001600160a01b0383811660248301526044820183905261199b91859182169063a9059cbb906064015b604051602081830303815290604052915060e01b6020820180516001600160e01b038381831617835250505050612b5d565b6000546001600160a01b031633146115ba5760405163118cdaa760e01b8152336004820152602401611c55565b6040516001600160a01b038481166024830152838116604483015260648201839052611f919186918216906323b872dd90608401612739565b604080516001808252818301909252600091816020015b60408051808201909152600080825260208201528152602001906001900390816127e85790505090506040518060400160405280846001600160a01b0316815260200185815250816000815181106128425761284261306d565b60209081029190910101526040805160a081019091526001600160a01b03861660c08201526000908060e0810160405160208183030381529060405281526020018888888860405160200161289a94939291906133a0565b60408051808303601f19018152918152908252602080830186905260008383018190528251918201835280825260609093015260085490516396f4e9f960e01b815292935090916001600160a01b03909116906396f4e9f99034906129059088908790600401613140565b60206040518083038185885af1158015612923573d6000803e3d6000fd5b50505050506040513d601f19601f820116820180604052508101906129489190612fdf565b600089815260036020908152604091829020600a0183905581516001600160a01b038b811682529181018a90529088168183015290519192506001600160401b0386169183918b917f71589e25954bf256457dbad8763ce0a2cf812e563894df1592cfc30f2f082e8b9181900360600190a4604080518781526001600160a01b0387811660208301526001828401529151918916918a917f9dd1123caed3db2f5f4cb3f790e7c644de9839e42a94981cc88e8e88f1300f2b919081900360600190a35050505050505050565b612a286001600160a01b038216848461270c565b604080518381526001600160a01b03838116602083015260008284015291519185169186917f9dd1123caed3db2f5f4cb3f790e7c644de9839e42a94981cc88e8e88f1300f2b919081900360600190a350505050565b612a86612bce565b6002805460ff191690557f5db9ee0a495bf2e6ff9c91a7834c1ba4fdd244a5e8aa4e537bd38aeae4b073aa335b6040516001600160a01b03909116815260200160405180910390a1565b600080546001600160a01b038381166001600160a01b0319831681178455604051919092169283917f8be0079c531659141344cd1fd0a4f28419497f9722a3daafe3b4186f6b6457e09190a35050565b612b286126e8565b6002805460ff191660011790557f62e78cea01bee320cd4e420270b5ea74000d11b0c9f74754ebdbfc544b05a258612ab33390565b600080602060008451602086016000885af180612b80576040513d6000823e3d81fd5b50506000513d91508115612b98578060011415612ba5565b6001600160a01b0384163b155b15611f9157604051635274afe760e01b81526001600160a01b0385166004820152602401611c55565b60025460ff166115ba57604051638dfc202b60e01b815260040160405180910390fd5b6001600160a01b0381168114610b5057600080fd5b600060208284031215612c1857600080fd5b8135611bb781612bf1565b600060208284031215612c3557600080fd5b5035919050565b80356001600160401b0381168114612c5357600080fd5b919050565b600080600080600060a08688031215612c7057600080fd5b8535612c7b81612bf1565b9450602086013593506040860135612c9281612bf1565b92506060860135612ca281612bf1565b9150612cb060808701612c3c565b90509295509295909350565b6020808252825182820181905260009190848201906040850190845b81811015612cf457835183529284019291840191600101612cd8565b50909695505050505050565b60008060408385031215612d1357600080fd5b8235612d1e81612bf1565b946020939093013593505050565b600060208284031215612d3e57600080fd5b611bb782612c3c565b81516001600160a01b031681526101a081016020830151612d7360208401826001600160a01b03169052565b50604083015160408301526060830151612d9860608401826001600160a01b03169052565b506080830151612db360808401826001600160a01b03169052565b5060a0830151612dce60a08401826001600160401b03169052565b5060c083015160c083015260e0830151612dec60e084018215159052565b5061010083810151151590830152610120808401519083015261014080840151908301526101608084015115159083015261018092830151929091019190915290565b8035612c5381612bf1565b600080600060608486031215612e4f57600080fd5b612e5884612c3c565b92506020840135612e6881612bf1565b929592945050506040919091013590565b600060208284031215612e8b57600080fd5b81356001600160401b03811115612ea157600080fd5b820160a08185031215611bb757600080fd5b60008060008060808587031215612ec957600080fd5b8435612ed481612bf1565b93506020850135612ee481612bf1565b93969395505050506040820135916060013590565b6001600160a01b038e811682528d81166020830152604082018d90528b811660608301528a1660808201526001600160401b03891660a082015260c0810188905286151560e08201526101a081018615156101008301528561012083015284610140830152612f6d61016083018515159052565b826101808301529e9d5050505050505050505050505050565b60008060408385031215612f9957600080fd5b8235612fa481612bf1565b91506020830135612fb481612bf1565b809150509250929050565b600080600060608486031215612fd457600080fd5b8335612e5881612bf1565b600060208284031215612ff157600080fd5b5051919050565b634e487b7160e01b600052601160045260246000fd5b8181038181111561097957610979612ff8565b808202811582820484141761097957610979612ff8565b60008261305557634e487b7160e01b600052601260045260246000fd5b500490565b8082018082111561097957610979612ff8565b634e487b7160e01b600052603260045260246000fd5b60006001820161309557613095612ff8565b5060010190565b634e487b7160e01b600052604160045260246000fd5b6060815260006130e160608301600f81526e2224a922a1aa2faa2920a729a322a960891b602082015260400190565b6001600160a01b03949094166020830152506040015290565b6000815180845260005b8181101561312057602081850181015186830182015201613104565b506000602082860101526020601f19601f83011685010191505092915050565b600060406001600160401b03851683526020604081850152845160a0604086015261316e60e08601826130fa565b905081860151603f198087840301606088015261318b83836130fa565b6040890151888203830160808a01528051808352908601945060009350908501905b808410156131df57845180516001600160a01b03168352860151868301529385019360019390930192908601906131ad565b5060608901516001600160a01b031660a08901526080890151888203830160c08a0152955061320e81876130fa565b9a9950505050505050505050565b6000808335601e1984360301811261323357600080fd5b8301803591506001600160401b0382111561324d57600080fd5b60200191503681900382131561326257600080fd5b9250929050565b600080600080600060a0868803121561328157600080fd5b85356001600160401b038082111561329857600080fd5b818801915088601f8301126132ac57600080fd5b8135818111156132be576132be61309c565b604051601f8201601f19908116603f011681019083821181831017156132e6576132e661309c565b816040528281528b60208487010111156132ff57600080fd5b8260208601602083013760006020848301015280995050505050506020860135935061332d60408701612e2f565b925060608601359150612cb060808701612e2f565b805169ffffffffffffffffffff81168114612c5357600080fd5b600080600080600060a0868803121561337457600080fd5b61337d86613342565b9450602086015193506040860151925060608601519150612cb060808701613342565b60a0815260006133cf60a08301600f81526e2224a922a1aa2faa2920a729a322a960891b602082015260400190565b6020830196909652506001600160a01b03938416604082015260608101929092529091166080909101529056fea26469706673582212201b6137c9fa5ff4bcd9a580348290973640837d34ee6365d2491bf184c920fc1564736f6c63430008180033",
  "devdoc": {
    "details": "Core contract for RemitX stablecoin-based remittance system with direct transfers WARNING: This uses mock CCIP contracts - Morph testnet does not have official Chainlink CCIP support",
    "errors": {
      "EnforcedPause()": [
        {
          "details": "The operation failed because the contract is paused."
        }
      ],
      "ExpectedPause()": [
        {
          "details": "The operation failed because the contract is not paused."
        }
      ],
      "OwnableInvalidOwner(address)": [
        {
          "details": "The owner is not a valid owner account. (eg. `address(0)`)"
        }
      ],
      "OwnableUnauthorizedAccount(address)": [
        {
          "details": "The caller account is not authorized to perform an operation."
        }
      ],
      "ReentrancyGuardReentrantCall()": [
        {
          "details": "Unauthorized reentrant call."
        }
      ],
      "SafeERC20FailedOperation(address)": [
        {
          "details": "An operation with an ERC-20 token failed."
        }
      ]
    },
    "events": {
      "Paused(address)": {
        "details": "Emitted when the pause is triggered by `account`."
      },
      "Unpaused(address)": {
        "details": "Emitted when the pause is lifted by `account`."
      }
    },
    "kind": "dev",
    "methods": {
      "createRemittance(address,uint256,address,address,uint64)": {
        "params": {
          "amount": "The amount to send",
          "destinationChain": "The destination chain selector",
          "recipient": "The recipient address",
          "sourceToken": "The source token address",
          "targetToken": "The target token address"
        }
      },
      "deleteRemittance(bytes32)": {
        "params": {
          "remittanceId": "The remittance ID to delete"
        }
      },
      "owner()": {
        "details": "Returns the address of the current owner."
      },
      "paused()": {
        "details": "Returns true if the contract is paused, and false otherwise."
      },
      "renounceOwnership()": {
        "details": "Leaves the contract without owner. It will not be possible to call `onlyOwner` functions. Can only be called by the current owner. NOTE: Renouncing ownership will leave the contract without an owner, thereby disabling any functionality that is only available to the owner."
      },
      "transferOwnership(address)": {
        "details": "Transfers ownership of the contract to a new account (`newOwner`). Can only be called by the current owner."
      }
    },
    "title": "RemitXCore",
    "version": 1
  },
  "userdoc": {
    "kind": "user",
    "methods": {
      "ccipReceive((bytes32,uint64,bytes,bytes,(address,uint256)[]))": {
        "notice": "FIXED: CCIP receive implementation with onlyRouter modifier"
      },
      "createRemittance(address,uint256,address,address,uint64)": {
        "notice": "COMPLETELY REWRITTEN: Creates remittance with immediate direct transfer"
      },
      "deleteRemittance(bytes32)": {
        "notice": "ENHANCED: Delete remittance - now only for failed transfers with full refund"
      },
      "fundContract(address,uint256)": {
        "notice": "NEW: Emergency function to fund contract with tokens for direct transfers"
      },
      "getContractTokenBalance(address)": {
        "notice": "NEW: Check contract token balance for liquidity"
      },
      "getExchangeRate(address,address)": {
        "notice": "PRESERVED: Exchange rate calculation (unchanged)"
      },
      "getFee(uint64,address,uint256)": {
        "notice": "ENHANCED: Calculate CCIP fee with token transfer support"
      },
      "getUserActiveRemittances(address)": {
        "notice": "UPDATED: Get user's active remittances (only non-deleted, since all are completed)"
      },
      "getUserReceivedRemittances(address)": {
        "notice": "NEW: Get remittances received by user (for \"Received\" tab)"
      },
      "swapTokens(address,address,uint256,uint256)": {
        "notice": "PRESERVED: Token swapping functionality (unchanged)"
      }
    },
    "notice": "Handles cross-border remittances with immediate token delivery using CCIP",
    "version": 1
  },
  "storageLayout": {
    "storage": [
      {
        "astId": 8,
        "contract": "contracts/RemitXCore.sol:RemitXCore",
        "label": "_owner",
        "offset": 0,
        "slot": "0",
        "type": "t_address"
      },
      {
        "astId": 928,
        "contract": "contracts/RemitXCore.sol:RemitXCore",
        "label": "_status",
        "offset": 0,
        "slot": "1",
        "type": "t_uint256"
      },
      {
        "astId": 818,
        "contract": "contracts/RemitXCore.sol:RemitXCore",
        "label": "_paused",
        "offset": 0,
        "slot": "2",
        "type": "t_bool"
      },
      {
        "astId": 1515,
        "contract": "contracts/RemitXCore.sol:RemitXCore",
        "label": "remittances",
        "offset": 0,
        "slot": "3",
        "type": "t_mapping(t_bytes32,t_struct(Remittance)1501_storage)"
      },
      {
        "astId": 1520,
        "contract": "contracts/RemitXCore.sol:RemitXCore",
        "label": "supportedTokens",
        "offset": 0,
        "slot": "4",
        "type": "t_mapping(t_address,t_struct(TokenConfig)1510_storage)"
      },
      {
        "astId": 1524,
        "contract": "contracts/RemitXCore.sol:RemitXCore",
        "label": "supportedChains",
        "offset": 0,
        "slot": "5",
        "type": "t_mapping(t_uint64,t_bool)"
      },
      {
        "astId": 1529,
        "contract": "contracts/RemitXCore.sol:RemitXCore",
        "label": "userRemittances",
        "offset": 0,
        "slot": "6",
        "type": "t_mapping(t_address,t_array(t_bytes32)dyn_storage)"
      },
      {
        "astId": 1533,
        "contract": "contracts/RemitXCore.sol:RemitXCore",
        "label": "processedMessages",
        "offset": 0,
        "slot": "7",
        "type": "t_mapping(t_bytes32,t_bool)"
      },
      {
        "astId": 1536,
        "contract": "contracts/RemitXCore.sol:RemitXCore",
        "label": "ccipRouter",
        "offset": 0,
        "slot": "8",
        "type": "t_contract(MockCCIPRouter)1365"
      },
      {
        "astId": 1538,
        "contract": "contracts/RemitXCore.sol:RemitXCore",
        "label": "linkToken",
        "offset": 0,
        "slot": "9",
        "type": "t_address"
      },
      {
        "astId": 1541,
        "contract": "contracts/RemitXCore.sol:RemitXCore",
        "label": "remittanceFee",
        "offset": 0,
        "slot": "10",
        "type": "t_uint256"
      },
      {
        "astId": 1550,
        "contract": "contracts/RemitXCore.sol:RemitXCore",
        "label": "remittanceIds",
        "offset": 0,
        "slot": "11",
        "type": "t_array(t_bytes32)dyn_storage"
      }
    ],
    "types": {
      "t_address": {
        "encoding": "inplace",
        "label": "address",
        "numberOfBytes": "20"
      },
      "t_array(t_bytes32)dyn_storage": {
        "base": "t_bytes32",
        "encoding": "dynamic_array",
        "label": "bytes32[]",
        "numberOfBytes": "32"
      },
      "t_bool": {
        "encoding": "inplace",
        "label": "bool",
        "numberOfBytes": "1"
      },
      "t_bytes32": {
        "encoding": "inplace",
        "label": "bytes32",
        "numberOfBytes": "32"
      },
      "t_contract(MockCCIPRouter)1365": {
        "encoding": "inplace",
        "label": "contract MockCCIPRouter",
        "numberOfBytes": "20"
      },
      "t_mapping(t_address,t_array(t_bytes32)dyn_storage)": {
        "encoding": "mapping",
        "key": "t_address",
        "label": "mapping(address => bytes32[])",
        "numberOfBytes": "32",
        "value": "t_array(t_bytes32)dyn_storage"
      },
      "t_mapping(t_address,t_struct(TokenConfig)1510_storage)": {
        "encoding": "mapping",
        "key": "t_address",
        "label": "mapping(address => struct RemitXCore.TokenConfig)",
        "numberOfBytes": "32",
        "value": "t_struct(TokenConfig)1510_storage"
      },
      "t_mapping(t_bytes32,t_bool)": {
        "encoding": "mapping",
        "key": "t_bytes32",
        "label": "mapping(bytes32 => bool)",
        "numberOfBytes": "32",
        "value": "t_bool"
      },
      "t_mapping(t_bytes32,t_struct(Remittance)1501_storage)": {
        "encoding": "mapping",
        "key": "t_bytes32",
        "label": "mapping(bytes32 => struct RemitXCore.Remittance)",
        "numberOfBytes": "32",
        "value": "t_struct(Remittance)1501_storage"
      },
      "t_mapping(t_uint64,t_bool)": {
        "encoding": "mapping",
        "key": "t_uint64",
        "label": "mapping(uint64 => bool)",
        "numberOfBytes": "32",
        "value": "t_bool"
      },
      "t_struct(Remittance)1501_storage": {
        "encoding": "inplace",
        "label": "struct RemitXCore.Remittance",
        "members": [
          {
            "astId": 1476,
            "contract": "contracts/RemitXCore.sol:RemitXCore",
            "label": "sender",
            "offset": 0,
            "slot": "0",
            "type": "t_address"
          },
          {
            "astId": 1478,
            "contract": "contracts/RemitXCore.sol:RemitXCore",
            "label": "recipient",
            "offset": 0,
            "slot": "1",
            "type": "t_address"
          },
          {
            "astId": 1480,
            "contract": "contracts/RemitXCore.sol:RemitXCore",
            "label": "amount",
            "offset": 0,
            "slot": "2",
            "type": "t_uint256"
          },
          {
            "astId": 1482,
            "contract": "contracts/RemitXCore.sol:RemitXCore",
            "label": "sourceToken",
            "offset": 0,
            "slot": "3",
            "type": "t_address"
          },
          {
            "astId": 1484,
            "contract": "contracts/RemitXCore.sol:RemitXCore",
            "label": "targetToken",
            "offset": 0,
            "slot": "4",
            "type": "t_address"
          },
          {
            "astId": 1486,
            "contract": "contracts/RemitXCore.sol:RemitXCore",
            "label": "destinationChain",
            "offset": 20,
            "slot": "4",
            "type": "t_uint64"
          },
          {
            "astId": 1488,
            "contract": "contracts/RemitXCore.sol:RemitXCore",
            "label": "timestamp",
            "offset": 0,
            "slot": "5",
            "type": "t_uint256"
          },
          {
            "astId": 1490,
            "contract": "contracts/RemitXCore.sol:RemitXCore",
            "label": "completed",
            "offset": 0,
            "slot": "6",
            "type": "t_bool"
          },
          {
            "astId": 1492,
            "contract": "contracts/RemitXCore.sol:RemitXCore",
            "label": "deleted",
            "offset": 1,
            "slot": "6",
            "type": "t_bool"
          },
          {
            "astId": 1494,
            "contract": "contracts/RemitXCore.sol:RemitXCore",
            "label": "exchangeRate",
            "offset": 0,
            "slot": "7",
            "type": "t_uint256"
          },
          {
            "astId": 1496,
            "contract": "contracts/RemitXCore.sol:RemitXCore",
            "label": "ccipFee",
            "offset": 0,
            "slot": "8",
            "type": "t_uint256"
          },
          {
            "astId": 1498,
            "contract": "contracts/RemitXCore.sol:RemitXCore",
            "label": "isCrossChain",
            "offset": 0,
            "slot": "9",
            "type": "t_bool"
          },
          {
            "astId": 1500,
            "contract": "contracts/RemitXCore.sol:RemitXCore",
            "label": "ccipMessageId",
            "offset": 0,
            "slot": "10",
            "type": "t_bytes32"
          }
        ],
        "numberOfBytes": "352"
      },
      "t_struct(TokenConfig)1510_storage": {
        "encoding": "inplace",
        "label": "struct RemitXCore.TokenConfig",
        "members": [
          {
            "astId": 1503,
            "contract": "contracts/RemitXCore.sol:RemitXCore",
            "label": "isSupported",
            "offset": 0,
            "slot": "0",
            "type": "t_bool"
          },
          {
            "astId": 1505,
            "contract": "contracts/RemitXCore.sol:RemitXCore",
            "label": "priceFeed",
            "offset": 1,
            "slot": "0",
            "type": "t_address"
          },
          {
            "astId": 1507,
            "contract": "contracts/RemitXCore.sol:RemitXCore",
            "label": "minAmount",
            "offset": 0,
            "slot": "1",
            "type": "t_uint256"
          },
          {
            "astId": 1509,
            "contract": "contracts/RemitXCore.sol:RemitXCore",
            "label": "maxAmount",
            "offset": 0,
            "slot": "2",
            "type": "t_uint256"
          }
        ],
        "numberOfBytes": "96"
      },
      "t_uint256": {
        "encoding": "inplace",
        "label": "uint256",
        "numberOfBytes": "32"
      },
      "t_uint64": {
        "encoding": "inplace",
        "label": "uint64",
        "numberOfBytes": "8"
      }
    }
  }
}